:020000040800F2
:10000000305D002061020008254C0008FB3D00081F
:10001000554800082D1100089170000800000000EC
:10002000000000000000000000000000A101000826
:100030007315000800000000FD0100088565000838
:100040007B0200087B0200087B0200087B0200089C
:100050007B0200087B0200087B0200087B0200088C
:100060007B0200087B0200087B0200087B0200087C
:100070007B0200087B0200087B0200087B0200086C
:1000800049140008591400087B0200087B0200088C
:100090007B0200087B0200087B0200087B0200084C
:1000A0007B020008656600087B0200087B020008EE
:1000B0007B0200087B0200087B0200087B0200082C
:1000C0007B0200087B0200087B0200087B0200081C
:1000D0007B0200087B020008817000087B02000898
:1000E0007B0200087B0200087B0200087B020008FC
:1000F0007B0200087B0200087B0200087B020008EC
:100100007B0200087B0200087B0200087B020008DB
:100110007B0200087B020008756600087B0200086D
:100120007B0200087B0200087B0200087B020008BB
:100130007B0200087B0200087B0200087B020008AB
:100140007B0200087B0200087B0200087B0200089B
:100150007B0200087B0200087B0200087B0200088B
:100160007B0200087B0200087B0200087B0200087B
:100170007B0200087B0200087B02000800000000F0
:100180007B0200087B020008DFF810D000F038FB8B
:1001900000480047D7710008AFF30080305D0020B1
:1001A0002C4B19680868B0E8F04F80F30988BFF35A
:1001B0006F8F4FF0000080F311887047000000003F
:1001C00008480068006880F308884FF0000080F35A
:1001D000148862B661B6BFF34F8FBFF36F8F00DF35
:1001E00000BF00BF08ED00E0DFF80C00016841F43B
:1001F00070010160704700BF88ED00E0EFF30980F7
:10020000BFF36F8F134B1A681EF0100F08BF20ED5D
:10021000108A20E9F04F106009B44FF0500080F3CD
:100220001188BFF34F8FBFF36F8F08F0D9F94FF0EC
:10023000000080F3118809BC19680868B0E8F04F25
:100240001EF0100F08BFB0EC108A80F30988BFF3CE
:100250006F8F704714000020EFF305807047000097
:100260000648804706480047FEE7FEE7FEE7FEE750
:10027000FEE7FEE7FEE7FEE7FEE7FEE75166000861
:10028000890100082DE9F05F0546002092469B4653
:1002900088460646814640241BE02846414647469C
:1002A000224600F0EAF953465A46C01A914110D34B
:1002B00011461846224600F0D1F92D1A67EB0108C5
:1002C0004F4622460120002100F0C8F917EB000933
:1002D0004E41201EA4F10104DFDC484631462A4687
:1002E0004346BDE8F09F40EA01039B0703D009E0C5
:1002F00008C9121F08C0042AFAD203E011F8013B12
:1003000000F8013B521EF9D27047D2B201E000F86A
:10031000012B491EFBD270470022F6E710B51346A9
:100320000A4604461946FFF7F0FF204610BD421C5E
:1003300010F8011B0029FBD1801A704710B500226C
:1003400000E0521C835C8C5CA34201D1002BF8D1ED
:10035000D8B2E1B2401A10BD2DE9FE4F804681EAC5
:100360000300C00F0C46009021F0004123F000452F
:10037000B8EB0200A94105D24046214690461C46F2
:100380000B46024623F00040104347D0270DC7F329
:100390000A00C3F30A510290401A019040286BDA18
:1003A000C3F3130040F4801B0098924620B1002351
:1003B000D2EB030A63EB0B0B01985946C0F14002E4
:1003C000504600F04BF906460D4650465946019AF4
:1003D00000F063F910EB08006141002487EA115234
:1003E00084EAE7731A4340D0009A62B3019A012A63
:1003F0004FEA075215DC001B61EB02014FF000428F
:1004000002EA0752CDE90042001C41F58011324654
:100410002B4600F063F903B0BDE8F08F404621465B
:10042000F9E7001B61EB0201001C41F58013001885
:100430005B412018A2F5001747EB030140EAD57095
:10044000B6196D4111E06D084FEA360645EAC075F0
:100450004FEA0752001B61EB0201001C41F58011BD
:1004600049084FEA30000019514132462B4603B08B
:10047000BDE8F04F00F023B90098012240000023AE
:10048000D0EB020263EBE073009821464FEAE07480
:10049000B8EB000061EB0401E9E783F000435BE7A0
:1004A00081F0004158E72DE9FE4F81EA030404F092
:1004B000004421F0004100944FF0000B23F0004372
:1004C00050EA01045ED052EA03045BD0C3F30A543D
:1004D000C1F30A552C44A4F2F3340194A0FB025456
:1004E000C1F3130141F48011C3F3130343F48013E8
:1004F00001FB024400FB034E840A970A44EA81543C
:1005000047EA8357A4FB076802958D0A05FB078518
:100510004FEA932C04FB0C542705029D4FEA065822
:1005200047EA1637B5EB08056EEB070C870E920EFF
:1005300047EA811742EA8312A7FB0201B6EB0B01DF
:1005400064EB00042B0D43EA0C335E1844EB1C50A3
:10055000DA465146E7FB0201C5F313044FEA0B33B9
:1005600043EA14534FEA0432019C43EA0603A4F120
:100570000C040294009CCDE900B400F0AFF803B085
:10058000BDE8F08F00200146F9E70EB540F2334197
:1005900002910021CDE900110A460B4600F09EF8B9
:1005A00003B000BDC1F30A5210B5C1F3130140F20C
:1005B000FF3341F480119A4201DA002010BD40F26D
:1005C00033439A42A2F2334203DC524200F055F820
:1005D00010BD904010BD00F0004230F000400AD045
:1005E000C10D01F56071C0F3160042EA0151C20865
:1005F00040071143704700200146704730B5041E84
:1006000071F1000404DB4FF00044404264EB01014F
:10061000141E73F1000405DB1C464FF000435242E8
:1006200063EB04038B4208BF824230BD30B5041E29
:1006300071F1000404DB4FF00044404264EB01011F
:10064000141E73F1000405DB1C464FF000435242B8
:1006500063EB0403994208BF904230BD202A04DBBB
:10066000203A00FA02F1002070479140C2F12003C5
:1006700020FA03F3194390407047202A04DB203A04
:1006800021FA02F00021704721FA02F3D040C2F1B2
:1006900020029140084319467047202A06DBCB17F9
:1006A000203A41FA02F043EAE07306E041FA02F32D
:1006B000D040C2F12002914008431946704710B55E
:1006C000141E73F1000408DA401C41F10001921875
:1006D0005B411A4301D120F0010010BD2DE9F04D1E
:1006E00092469B4611B1B1FA81F202E0B0FA80F273
:1006F00020329046FFF7B2FF04460F4640EA0A0058
:1007000041EA0B0153465A46084313D0114653EAB7
:10071000010019D0C8F140025046FFF7AEFF054670
:100720000E46504659464246FFF798FF084305D00B
:10073000012004E020463946BDE8F08D0020054345
:1007400046EAE0762C4337430A986305E40AA0EBB7
:1007500008000022FD0A44EA47540A3002D500206E
:100760000146E9E7010510196941DDE9084500196D
:100770006941BDE8F04DA2E72DE9F041054621F0C1
:1007800000400C46284309D0C4F30A5040F23341DC
:10079000884205DD28462146BDE8F0812846FBE772
:1007A00040F2FE31884210DC0CDB4FEA043040EAB4
:1007B000155050EA053105D0104804F000410143BE
:1007C0000020E9E700200146E6E7A0F23340464278
:1007D000C6F1400228462146FFF740FF07468846FB
:1007E000284621463246FFF748FF43463A46FFF780
:1007F00066FF3246BDE8F041FFF730BF0000F03F32
:10080000064C074D06E0E06840F0010394E807005D
:1008100098471034AC42F6D3FFF7BAFC60A000084A
:1008200080A0000830B591B0044600253F4800681C
:1008300028B102213D48006808F0E8FA05463C4826
:1008400000788DF800003B4800788DF801003A48A8
:1008500000788DF80200394800788DF80400374898
:1008600041788DF805104188ADF806108188ADF803
:10087000081090ED020A8DED030A90ED030A8DED4C
:10088000040A01690591416906912D4800788DF8A7
:100890001C002C4800788DF81D002B4800788DF83E
:1008A0001E002A4890ED000A8DED080A284890EDB8
:1008B000000A8DED090A274800788DF8280026489F
:1008C00000680B90254800680C90254800788DF84A
:1008D0003400234841788DF8351081788DF8361032
:1008E000C1788DF837101F4800788DF838001E4801
:1008F00000788DF839001D4890ED000A8DED0F0A43
:100900001B4890ED000A8DED100A012D06D1002341
:100910001A4619460548006808F072F844226946EC
:100920002046FFF7E0FC11B030BD0000B40000200D
:10093000B8000020BA000020B9000020A44D00201B
:10094000DA000020D8000020D9000020D0000020CC
:10095000D4000020EC000020F0000020F400002073
:10096000F80000200001002001010020DC00002030
:10097000E000002000B52DED028B87B0182253490E
:1009800001A8FFF7B0FC062351A20021084604F09D
:1009900043FE062351A20021422004F03DFE06231F
:1009A00050A20C21002004F037FE0620009047489A
:1009B000001F90F8382003230C211E2004F0CEFDE8
:1009C00006234AA20C21402004F026FE06200090B7
:1009D0003E48001F90F8392003230C215E2004F0CC
:1009E000BDFD062343A21821002004F015FE9DED55
:1009F000030A10EE101A0846FFF7EDFD41EC180B44
:100A0000062002230122B0EE480AF0EE680A1821FF
:100A10000090084604F074FC062338A218214020F8
:100A200004F0FAFD9DED040A10EE101A0846FFF7D7
:100A3000D2FD41EC180B062002230122B0EE480A39
:100A4000F0EE680A18210090582004F059FC0623A3
:100A50002CA22821002004F0DFFD1C48001F90ED8F
:100A60000F0A10EE101A0846FFF7B5FD41EC180BFF
:100A7000062001230222B0EE480AF0EE680A28217F
:100A800000902A2004F03CFC062321A234210020FF
:100A900004F0C2FD0D48001F90ED100A10EE101A70
:100AA0000846FFF798FD41EC180B062001230222AF
:100AB000B0EE480AF0EE680A342100902A2004F0D3
:100AC0001FFC07B0BDEC028B00BD0000E84D00200C
:100AD000416C6C20436F6E74726F6C004B3420421B
:100AE00061636B004C4A6F793A000000524A6F799B
:100AF0003A00000044434C3A000000004443523A9C
:100B000000000000537465657220543A0000000034
:100B1000537465657220433A0000000010B5062347
:100B200025A20021182004F077FD062325A20C2120
:100B3000002004F071FD062325A21821002004F0F6
:100B40006BFD062326A22421002004F065FD062368
:100B500026A23021002004F05FFD062326A23821C2
:100B6000002004F059FD2848807830B101280BD0CE
:100B7000022810D003281CD114E0082380220C2165
:100B8000002004F039FB15E0082380221821002002
:100B900004F032FB0EE0082380222421002004F020
:100BA0002BFB07E0082380223021002004F024FBE7
:100BB00000E000BF00BF10BD54657374204D656E2A
:100BC000750000004D6F746F7220546573740000DF
:100BD0005374657070657220546573740000000072
:100BE0004E5246205465737400000000416C6C2026
:100BF000436F6E74726F6C004B312F322053656CF3
:100C0000204B33204F4B0000E44D002010B52DED5C
:100C1000028B88B01822454902A8FFF764FB06231F
:100C200043A20021084604F0F7FC062343A200215A
:100C3000482004F0F1FC062342A20C21002004F01D
:100C4000EBFC9DF8080000F081FA044606232246DA
:100C50000C21084604F0E0FC06200090BDF90A20B3
:100C600003230C21242004F09FFC062336A20C2130
:100C70003C2004F0D1FC062334A21821002004F00B
:100C8000CBFC9DF8090000F061FA044606232246D9
:100C900018210C2004F0C0FC06200090BDF90C20A7
:100CA00003231821242004F07FFC062326A2182108
:100CB0003C2004F0B1FC062325A22821002004F0EA
:100CC000ABFC9DED040A10EE101A0846FFF783FCFA
:100CD00041EC180B062002230422B0EE480AF0EE85
:100CE000680A28210090242004F00AFB06231AA297
:100CF0003421002004F090FC9DED050A10EE101A3E
:100D00000846FFF768FC41EC180B0620022304227A
:100D1000B0EE480AF0EE680A34210090242004F076
:100D2000EFFA08B0BDEC028B10BD0000E84D0020CA
:100D30004D6F746F72205465737400004B34204201
:100D400061636B004C3A000025000000523A00003D
:100D50004C206D2F733A000052206D2F733A000023
:100D600038B5062346A20021084604F055FC0623A8
:100D700046A200214E2004F04FFC062345A20C2180
:100D8000002004F049FC06200090444890F82820F8
:100D900001230C21182004F0E1FB062340A21821B6
:100DA000002004F039FC3D48C06A42F21071B0FBEB
:100DB000F1F201FB120406200423224618210090C0
:100DC000122004F0CBFB062336A21821362004F0B3
:100DD00023FC3248006B42F21071B0FBF1F201FBD0
:100DE0001204062004232246182100904E2004F00D
:100DF000B5FB06232DA22821002004F00DFC0620BF
:100E00000090264890F8342002232821122004F074
:100E1000F7FA0623202228211E2004F047FA062094
:100E200000901E4890F8352002232821242004F049
:100E3000E7FA062320222821302004F037FA062082
:100E40000090164890F8362002232821362004F01E
:100E5000D7FA062320222821422004F027FA062070
:100E600000900E4890F8372002232821482004F0F3
:100E7000C7FA06230EA23821002004F0CDFB38BDAE
:100E80004E52462054657374000000004B342042DB
:100E900061636B00466C673A00000000E44D00207F
:100EA0004F4B3A004552523A0000000052583A0067
:100EB000526563762064617461207072657669653D
:100EC0007700000000B52DED028B81B006233DA216
:100ED0000021084604F0A0FB06233EA20021422088
:100EE00004F09AFB06233DA20C21002004F094FBA1
:100EF0003C48407F08B93CA000E03CA002460623E5
:100F00000C212A2004F088FB062339A20C2148205A
:100F100004F082FB062000903248027F01230C215E
:100F20005A2004F041FB062332A21821002004F0CD
:100F300073FB2C4890ED080A10EE101A0846FFF7D4
:100F40004AFB41EC180B062001230422B0EE480AAC
:100F5000F0EE680A182100902A2004F0D1F9062347
:100F600026A22821002004F057FB1E48807F08B9E4
:100F70001DA000E01DA00246062328212A2004F01F
:100F80004BFB06231FA23421002004F045FB15482B
:100F900090ED090A10EE101A0846FFF71CFB41EC11
:100FA000180B062001230422B0EE480AF0EE680A6E
:100FB000342100902A2004F0A3F901B0BDEC028B8B
:100FC00000BD0000537465707065722054657374C1
:100FD000000000004B34204261636B004C204469E8
:100FE000723A0000E44D002043570000434357008D
:100FF000454E3A004C2052504D3A00005220446970
:10100000723A0000522052504D3A0000012012491D
:1010100008701248007830B1012808D002280AD0A0
:10102000032810D10BE001200D49087011E00220C7
:101030000B4908700DE003200949087009E00420FD
:101040000749087005E0002005490870024908704A
:1010500000BF00BF70470000BA000020B9000020A8
:10106000B800002008B5002000900021684603F079
:10107000B9F89DF8000008BD70B504460025204869
:10108000006828B102211E48006807F0BFFE05462F
:101090001C48007818BB012C04D0022C0ED0032C65
:1010A0001BD117E01848007808B9032003E0164860
:1010B0000078401EC0B2144908700FE01248007852
:1010C000401C1149087008460078042801DB002004
:1010D000087003E0FFF79AFF00E000BF06E0042C71
:1010E00004D100200749087008490870012D06D175
:1010F00000231A4619460248006807F081FC70BDBB
:10110000B4000020BA000020B9000020B800002080
:1011100000B591B06846FFF785FB44226946024856
:10112000FFF7E1F811B000BDE44D002000BFFEE77D
:101130000146642901DD6420704711F1640F02DA71
:101140006FF06300F8E70846F6E70000014649B192
:10115000012902D0022904D101E003A0704703A0B5
:10116000FCE700BF02A0F9E746574400425744009D
:101170005354500010B504460CB1012000E000208B
:1011800002461021014800F059FD10BD0008024040
:1011900010B5044604B910BD182203492046FFF7D4
:1011A000A2F800BFF7E70000284E002010B500218C
:1011B000104802F02FFA04210E4802F02BFA3C21CD
:1011C0000D4801F08DFF3C210C4801F089FF002003
:1011D000094909684862094909684862084908805C
:1011E000084908800120FFF7C5FF0021084600F0EC
:1011F0000BF810BD60020020D00100201802002072
:10120000080100200A01002070B505460C4628465A
:10121000FFF78EFF05462046FFF78AFF0446214868
:1012200045808480002D08DD01201E49087000F0F3
:101230003BF8A8B200F066F813E0002D09DA0220AE
:101240001849087000F030F8694288B200F05AF886
:1012500007E000201349087000F026F8002000F095
:1012600051F8002C08DD01200E49487000F05AF8B2
:10127000A0B200F085F813E0002C09DA0220094939
:10128000487000F04FF8614288B200F079F807E04A
:1012900000200449487000F045F8002000F070F884
:1012A00070BD0000284E002010B50446DCB1012CB2
:1012B00002D0022C16D10AE001221146104800F09B
:1012C000BDFC002202210E4800F0B8FC16E000220E
:1012D00001210B4800F0B2FC01220221084800F075
:1012E000ADFC0BE000BF00220121054800F0A6FC88
:1012F00000220221024800F0A1FC00BF00BF10BD87
:101300000008024010B5064B1B68DB6A5A1C02FB42
:1013100000F36424B3FBF4F1014B1B68596310BD67
:101320006002002010B50446DCB1012C02D0022C72
:1013300016D10AE001220421104800F07FFC0022AF
:1013400008210E4800F07AFC16E0002204210B4828
:1013500000F074FC01220821084800F06FFC0BE04B
:1013600000BF00220421054800F068FC002208218B
:10137000024800F063FC00BF00BF10BD000802403F
:1013800010B5064B1B68DB6A5A1C02FB00F3642491
:10139000B3FBF4F1014B1B68996310BD60020020A0
:1013A00070B5B5EEC00AF1EE10FA00D870BD1F4E50
:1013B0003668766A33B21E4E3668766A34B21D4E8F
:1013C00036889E1B30B21C4E3688A61B35B2194E8D
:1013D0003380194E348001462A465242174E3161FD
:1013E0007261DFED171A02EE101AB8EEC22ADFEDB5
:1013F000152AC2EE220A02EE102AB8EEC22ADFED4A
:10140000112A82EE221A9FED0E2A20EE822AC2EEC7
:10141000002AC6ED022A9FED0A2A21EE022AC2EE18
:10142000002AC6ED032A00BFC0E70000D00100205B
:1014300018020020080100200A010020284E002088
:10144000B91A513E00005C4410B5024800F000F9A2
:1014500010BD00002804002010B5024800F0F8F884
:1014600010BD0000C803002001460878103818237A
:10147000B0FBF3F20848805CC865032A05D9086808
:101480006FF30900001D886503E008686FF3090029
:101490008865886D70470000E496000801460020CA
:1014A0008A6A8B69CBB932B1012A0DD0022A03D0E6
:1014B000032A10D10EE000BFCB6A03F08073B3F1B2
:1014C000807F00D1012007E0CB6AB3F1C07F00D15B
:1014D000012001E000E000BF34E08B69B3F5005F5C
:1014E0001AD132B1012A07D0022A03D0032A11D11E
:1014F0000AE000BF01200EE0CB6A03F08073B3F175
:10150000807F00D1012006E0CB6AB3F1C07F00D11B
:10151000012000E000BF15E032B1012A05D0022A07
:1015200004D0032A0CD103E000BF00BF012008E073
:10153000CB6A03F08073B3F1807F00D1012000E01B
:1015400000BF00BF704730B50468246824F48024CD
:1015500005682C60046863608468402C04D10468CA
:10156000A2600468E16003E00468A1600468E260CE
:1015700030BD704772B600BFFEE770B50446A56D7A
:1015800000F062FB064694F83500022808D080205F
:10159000606500BF002084F8340000BF012070BDEA
:1015A0002068006820F01600216808602068406903
:1015B00020F0800021684861206C08B9A06C28B137
:1015C0002068006820F00800216808602068006832
:1015D00020F001002168086010E000F035FB801B5E
:1015E00005280BD920206065032084F8350000BF52
:1015F000002084F8340000BF0320D0E72068006892
:1016000000F001000028E8D194F85C103F208840E9
:10161000A860012084F8350000BF002084F8340061
:1016200000BF00BFBBE7014691F83500022803D098
:101630008020486501207047052081F83500086842
:10164000006820F001000A6810600020F3E7000045
:10165000F8B50446002000908C4800684FF41651FD
:10166000B0FBF1F7A56D2E6894F85C100820884057
:10167000304098B12068006800F0040070B1206824
:10168000006820F004002168086094F85C100820CD
:101690008840A860606D40F00100606594F85C10BF
:1016A00001208840304068B12068406900F0800027
:1016B00040B194F85C1001208840A860606D40F053
:1016C0000200606594F85C1004208840304068B1E6
:1016D0002068006800F0020040B194F85C1004201B
:1016E0008840A860606D40F00400606594F85C106C
:1016F00010208840304078B32068006800F008006F
:1017000050B394F85C1010208840A86020680068EE
:1017100000F4802080B12068006800F4002028B91F
:10172000206CC8B12046216C884715E0A06C98B1A8
:101730002046A16C88470FE02068006800F48070A4
:1017400028B92068006820F0080021680860206C33
:1017500010B12046216C884794F85C102020884006
:101760003040002865D02068006800F01000002894
:101770005FD094F85C1020208840A86094F8350071
:10178000052828D12068006820F01600216808602C
:101790002068406920F0800021684861206C08B909
:1017A000A06C28B12068006820F00800216808605B
:1017B00094F85C103F208840A860012084F8350030
:1017C00000BF002084F8340000BF206D10B1204617
:1017D000216D8847F8BD2068006800F4802080B142
:1017E0002068006800F4002028B9606C10B1204621
:1017F000616C88471DE0E06BD8B12046E16B8847FB
:1018000017E02068006800F4807068B920680068FC
:1018100020F0100021680860012084F8350000BF26
:10182000002084F8340000BFE06B10B12046E16B6B
:101830008847606D38B3606D00F00100F0B105209D
:1018400084F835002068006820F0010021680860F5
:1018500000BF0098401C0090B84200D905E0206805
:10186000006800F001000028F3D100BF012084F8D7
:10187000350000BF002084F8340000BFE06C10B1D8
:101880002046E16C884700BFA4E70000100000205C
:101890002DE9F0410446002500F0D6F9074614B9B9
:1018A0000120BDE8F081606A00B100BF022084F829
:1018B000350000BF002084F8340000BF20680068B5
:1018C00020F00100216808600AE000F0BDF9C01BAB
:1018D000052805D920206065032084F83500E0E75D
:1018E0002068006800F001000028EED1206805683B
:1018F00021480540D4E901010843E1680843216912
:10190000084361690843A1690843E1690843216A02
:1019100008430543606A042803D1D4E90B01084356
:101920000543206805602068456925F00705606A61
:101930000543606A04280DD1A06A0543E06A48B1F6
:101940002046FFF7ABFD28B140206065012084F8F8
:101950003500A6E7206845612046FFF785FD06466D
:1019600094F85C103F208840B06000206065012042
:1019700084F83500002094E73F8010F02DE9F0470F
:1019800004460D4616461F464FF00008D4F85890FE
:1019900000BF94F83400012802D10220BDE8F0878E
:1019A000012084F8340000BF94F83500012825D1C7
:1019B000022084F83500002060653B463246294607
:1019C0002046FFF7C0FD94F85C103F208840C9F81E
:1019D00008002068006840F0160021680860206C4C
:1019E00028B12068006840F008002168086020687D
:1019F000006840F001002168086006E000BF002098
:101A000084F8340000BF4FF002084046C6E70000EB
:101A100070B5044600F018F906462546681C10B15A
:101A200004480078054400BF00F00EF9801BA8426E
:101A3000FAD370BD0C000020F8B502460B46002515
:101A4000002400200021D6E0012606FA01F51E68D8
:101A500006EA0504AC4274D11E7906F00306012E95
:101A600004D01E7906F00306022E13D190684F00B1
:101A70000326BE40B0434F00DE68BE403043906056
:101A8000506801268E40B0431E79C6F300168E4082
:101A9000304350601E7906F00306032E09D0D0684B
:101AA0004F000326BE40B0434F009E68BE40304307
:101AB000D0601E7906F00306022E13D1CF0802F182
:101AC000200656F827004E07F70E0F26BE40B043FB
:101AD0004F07FF0E1E69BE403043CF0802F12006BB
:101AE00046F8270010684F000326BE40B0431E7919
:101AF00006F003064F00BE40304310605E6806F4F7
:101B00004036002E76D000BF002600963C4E366848
:101B100046F480463A4F3E603E46366806F48046BC
:101B2000009600BF00BF374E8F0856F827008E077B
:101B3000370F0F26BE40B043334EB24202D10026CB
:101B400024E057E0314EB24201D101261EE0304E72
:101B5000B24201D1022619E02E4EB24201D1032633
:101B600014E02D4EB24201D104260FE02B4EB242BA
:101B700001D105260AE02A4EB24201D1062605E02F
:101B8000284EB24201D1072600E008268F073F0FFA
:101B9000BE4030431B4E8F0846F82700224E306867
:101BA000A0435E6806F4801606B120431E4E3060E6
:101BB000361D3068A0435E6806F4001606B1204367
:101BC000194E361D3060184E361F3068A0435E68CF
:101BD00006F4003606B12043134E361F3060361F20
:101BE0003068A0435E6806F4803606B120430E4E8E
:101BF000083E3060491C1029FFF426AFF8BD0000F4
:101C0000443802400838014000000240000402400D
:101C100000080240000C0240001002400014024084
:101C200000180240001C0240083C014002461369B3
:101C30000B400BB1012000E0002070470AB1816128
:101C400001E00B04836170470148006870470000A1
:101C50000400002070B504460CB9012070BD94F852
:101C60003D0028B9002084F83C00204600F08CF9A3
:101C7000242084F83D002068006820F001002168DD
:101C800008602068006840F400402168086020680F
:101C9000006820F400402168086000F0ADFB0546B4
:101CA0005C496068884206D85B48854201D20120C1
:101CB00007E0002005E05948854201D2012000E0FC
:101CC0000020012800D1C9E75548B5FBF0F620688F
:101CD000406820F03F003043216848604D4960680B
:101CE000884201D8701C07E04FF4967070434FF49F
:101CF0007A71B0FBF1F0401C2168096A21F03F01C4
:101D000008432168086243496068884214D8681E05
:101D100061684900B0FBF1F0401CC0F30B000428DF
:101D200001D204203DE0681E61684900B0FBF1F07B
:101D3000401CC0F30B0034E0A06838B9681E61682D
:101D400001EB4101B0FBF1F0401C0AE0681E616844
:101D500001EBC10202EB0111B0FBF1F0401C40F4B9
:101D60008040C0F30B0008B901201AE0A06848B910
:101D7000681E616801EB4101B0FBF1F0401CC0F34B
:101D80000B000CE0681E616801EBC10202EB01115F
:101D9000B0FBF1F0401CC0F30B0040F4804040F475
:101DA00000402168C9694CF6FF72914308432168DD
:101DB000C861D4E9070108432168096821F0C0011E
:101DC000084321680860D4E9031008432168896842
:101DD00048F2FF329143084321688860D4E9050145
:101DE00008432168C96821F0FF0108432168C860E1
:101DF0002068006840F0010021680860002020642D
:101E0000202084F83D000020206384F83E0000BFBD
:101E100024E70000A086010080841E0000093D0028
:101E200040420F002DE9FC5F04460F46904699465C
:101E3000DDE90CAB0E9EFFF707FF054694F83D0069
:101E400020287DD1192301224D492046009502F01A
:101E500098F810B10220BDE8FC9F00BF94F83C0048
:101E6000012801D10220F6E7012084F83C0000BFE0
:101E70002068006800F0010028B92068006840F080
:101E80000100216808602068006820F40060216873
:101E90000860212084F83D00402084F83E000020A6
:101EA0002064C4F824A0A4F82AB0608D20853548A9
:101EB000E0624B46424639462046CDE9006501F0D6
:101EC000BDFF08B10120C6E731E02A463146204671
:101ED00002F033F950B1206C042805D12068006865
:101EE00040F40070216808600120B4E7606A00785F
:101EF00021680861606A401C6062208D401E208558
:101F0000608D401E608520684069C0F3800070B11C
:101F1000208D60B1606A007821680861606A401CA9
:101F20006062208D401E2085608D401E6085208D62
:101F30000028CAD12A463146204601F0EFFF00E0D2
:101F40001CE050B1206C042805D12068006840F4E2
:101F500000702168086001207DE72068006840F477
:101F6000007021680860202084F83D00002084F87B
:101F70003E0000BF84F83C0000BF6CE702206AE727
:101F8000020010000000FFFF10B586B004461421C7
:101F900001A8FEF7C1F91B49206888422FD100BF74
:101FA000002000901848006840F0020016490860C0
:101FB0000846006800F00200009000BF00BFC0208B
:101FC000019012200290002003900320049004202E
:101FD000059001A90D48FFF72FFD00BF00200090DC
:101FE00009481030006840F40010074910310860BB
:101FF0000846006800F40010009000BF00BF06B063
:1020000010BD00000054004030380240000402407F
:10201000034800680349097808440149086070478B
:10202000040000200C00002010B50D48006840F4AA
:1020300000700B4908600846006840F48060086042
:102040000846006840F480700860032000F0D6F86D
:102050000F2000F007F800F055F8002010BD000038
:10206000003C0240F0B587B004460026002700BFC0
:10207000002000901E48006840F400301C490860B1
:102080000846006800F40030009000BF00BF01A9BE
:1020900002A800F089F900F0BFF946001548B6FB28
:1020A000F0F0471E14481549086040F2E731134824
:1020B000C1604760002101618160816100F08AFE9A
:1020C000054695B90D4800F0DDFE05466DB91920AD
:1020D00000F042F8102C07D200222146192000F00F
:1020E0004FF80748046000E00125284607B0F0BD1E
:1020F0004438024040420F00004401408804002060
:102100000800002008B500BF0020009011480068BA
:1021100040F480400F4908600846006800F48040A1
:10212000009000BF00BF00BF00200090081F0068A3
:1021300040F08050091F08600846006800F0805099
:10214000009000BF00BF00220F21901E00F018F881
:1021500008BD0000443802400146084600280DDB57
:1021600000BF00BF00F01F0301229A4043099B00FB
:1021700003F1E023C3F8002100BF00BF00BF704798
:102180002DE9F05F80460D461646002704F082FFD9
:10219000074639462A46334601F00700C0F1070AD0
:1021A000BAF1040F02D94FF0040A01E0C0F1070AA6
:1021B000D14600F1040ABAF1070F02D24FF0000A2B
:1021C00001E0A0F1030AD4464FF0010A0AFA09FA25
:1021D000AAF1010A0AEA020A0AFA0CFA4FF0010B04
:1021E0000BFA0CFBABF1010B0BEA030B4AEA0B04F5
:1021F0002146404604F056FFBDE8F09F00BF00F0C6
:102200000702064B19684FF6FF031940044B0B43B6
:1022100043EA0221014B196000BF70470CED00E05A
:102220000000FA0570B504460D460CB9012070BDDA
:102230005848006800F00700A84209D255490D70BF
:102240000846006800F00700A84201D00120EEE730
:10225000207800F0020002281DD1207800F0040050
:10226000042805D14C48006840F4E0504A49086011
:10227000207800F00800082805D14748006840F49D
:102280006040454908604448006820F0F000A168BB
:10229000084341490860207800F00100A8B3606855
:1022A000012807D13C4808380068C0F34040B8B95D
:1022B0000120BCE76068022802D06068032807D1CB
:1022C000354808380068C0F3406048B90120AEE7DF
:1022D000314808380068C0F3400008B90120A6E77B
:1022E0002D48006820F00300616808432A4908600F
:1022F000FFF7AAFC064609E0FFF7A6FC801B41F2A7
:102300008831884202D9032091E707E0224800681B
:1023100000F00C006168B0EB810FEDD11D48006842
:1023200000F00700A84209D91A490D700846006854
:1023300000F00700A84201D0012078E7207800F0E3
:102340000400042807D11448006820F4E050E16834
:10235000084311490860207800F00800082808D1D7
:102360000D48006820F46040216940EAC1000A4934
:10237000086000F061F808490968C1F30311074AD1
:10238000515CC8400649086006480068FFF76AFECD
:1023900000204CE7003C024008380240EC96000860
:1023A00010000020080000200F2202600D4A126871
:1023B00002F0030242600B4A126802F0F0028260EF
:1023C000084A126802F4E052C260064A126802F437
:1023D0006042D2080261044A126802F007020A60F1
:1023E0007047000008380240003C02400148006885
:1023F000704700001000002000B5FFF7F7FF044908
:102400000968C1F38221034A515CC84000BD000045
:1024100008380240FC96000800B5FFF7E7FF0449C2
:102420000968C1F34231034A515CC84000BD000055
:1024300008380240FC9600082DE9F04700240025EA
:102440000026A1462548006800F00C0020B10428B1
:1024500005D008283AD105E0DFF8849039E0DFF8AC
:10246000849036E01D48001F006800F03F041B48C0
:10247000001F006800F4800078B11A481749091F4E
:102480000968C1F38811A0FB0170014622460023B0
:102490003846FDF7F7FE05460EE011480F49091FC3
:1024A0000968C1F38811A0FB017001462246002390
:1024B0003846FDF7E7FE05460848001F0068C0F3F0
:1024C0000140401C4600B5FBF6F902E0DFF8109031
:1024D00000BF00BF4846BDE8F08700000838024052
:1024E0000024F40000127A00F8B504460CB901206B
:1024F000F8BD207800F00100002874D0F948006889
:1025000000F00C0004280DD0F648006800F00C0024
:10251000082813D1F348001F006800F48000B0F5CC
:10252000800F0BD1EF4808380068C0F34040002806
:1025300059D06068002856D10120D9E700BF6068F3
:10254000B0F5803F08D1E7480838006840F4803093
:10255000E449083908601EE06068B0F5A02F0DD18D
:10256000E0480838006840F48020DE4908390860F7
:102570000846006840F4803008600CE0D94808380C
:10258000006820F48030D7490839086008460068A0
:1025900020F48020086000BF606890B1FFF754FB12
:1025A000054606E0FFF750FB401B642801D90320D5
:1025B0009EE7CC4808380068C0F340400028F1D0BE
:1025C00011E0FFF741FB054606E0FFF73DFB401B2E
:1025D000642801D903208BE7C24808380068C0F39B
:1025E00040400028F1D1207800F0020002285FD19D
:1025F000BC48006800F00C0058B1BA48006800F010
:102600000C0008281CD1B748001F006800F48000A7
:10261000B0B9B44808380068C0F3400020B1E068A1
:10262000012801D0012063E7AE480838006820F097
:10263000F800216940EAC100AA490839086037E07A
:10264000E06800B30120A8490860FFF7FDFA0546DD
:1026500006E0FFF7F9FA401B022801D9032047E7FB
:10266000A04808380068C0F340000028F1D09D4819
:102670000838006820F0F800216940EAC100994953
:102680000839086014E0002097490860FFF7DCFA79
:10269000054606E0FFF7D8FA401B022801D90320BF
:1026A00026E7904808380068C0F340000028F1D1C0
:1026B000207800F0080008282CD16069A8B101201A
:1026C0008A490860FFF7C0FA054606E0FFF7BCFA42
:1026D000401B022801D903200AE782486C300068B9
:1026E000C0F340000028F1D014E000207F490860CA
:1026F000FFF7AAFA054606E0FFF7A6FA401B0228F4
:1027000001D90320F4E677486C300068C0F340003C
:102710000028F1D1207800F00400042870D10027AF
:1027200070483830006800F0805090B900BF002039
:1027300000906C483830006840F08050694938316A
:1027400008600846006800F08050009000BF00BF9D
:1027500001276748006800F48070B0B964480068D9
:1027600040F4807062490860FFF76EFA054606E0A3
:10277000FFF76AFA401B022801D90320B8E65C483B
:10278000006800F480700028F2D000BFA068012823
:1027900008D154486830006840F001005149683160
:1027A00008601DE0A06805280DD14E48683000681B
:1027B00040F004004B49683108600846006840F06A
:1027C000010008600CE047486830006820F0010014
:1027D0004449683108600846006820F00400086039
:1027E00000BFA068A8B1FFF72FFA054609E0FFF780
:1027F0002BFA401B41F28831884202D9032077E648
:1028000026E0384868300068C0F340000028EED069
:1028100013E0FFF719FA054608E0FFF715FA401B29
:1028200041F28831884201D9032061E62D486830A1
:102830000068C0F340000028EFD1012F07D12948DC
:102840003830006820F0805026493831086000BFD9
:10285000A069002845D02348006800F00C00082833
:102860005DD0A069022845D100201F490866FFF706
:10287000EBF9054606E0FFF7E7F9401B022801D90E
:10288000032035E6174808380068C0F34060002888
:10289000F1D1D4E907010843616A40EA81110122BC
:1028A000A06AC2EB500041EA00412C20005D41EAE1
:1028B00000600C49091F086001200B490866FFF7FA
:1028C000C3F9054606E0FFF7BFF9401B022801D90E
:1028D00003200DE6034808380068C0F34060002874
:1028E000F1D049E00838024000004742800E4742DC
:1028F00000700040002021490866FFF7A5F9054651
:1029000006E0FFF7A1F9401B022801D90320EFE5FB
:102910001B480068C0F340600028F2D12CE0A06999
:10292000012800D1E4E51648001D0668A0690128C9
:1029300020D006F48001E06981421BD106F03F01FE
:10294000206A814216D147F6C0703040616AB0EB10
:10295000811F0FD106F440310122A06AC2EB500062
:10296000B1EB004F06D106F070612C20005DB1EB99
:10297000006F01D00120BBE50020B9E5000047420F
:102980000038024010B504460CB9012010BD606A41
:1029900038B96068B0F5827F00D105E00021E161BF
:1029A00002E00021216161610021A16294F85100DF
:1029B00028B9002084F85000204600F047F8022093
:1029C00084F851002068006820F040002168086009
:1029D000A08800F48270218901F404410843A18990
:1029E00001F400610843217C01F002010843217DCC
:1029F00001F001010843218B01F400710843217F9C
:102A000001F0380108432021095D01F080010843ED
:102A1000218D01F400510843216808600421A06958
:102A200001EA104094F8241001F0100108432168D5
:102A300048602068C06920F400602168C8610020F7
:102A40006065012084F8510000209FE710B586B032
:102A50000446142101A8FDF75FFC1B492068884249
:102A600030D100BF002000901848006840F480403A
:102A7000164908600846006800F48040009000BFD6
:102A800000BF00BF0020009010481038006840F0E0
:102A900002000E49103908600846006800F0020084
:102AA000009000BF00BF4FF46040019002200290F0
:102AB00000200390032004900520059001A90448FC
:102AC000FEF7BAFF06B010BD0038004040380240A3
:102AD000000402402DE9FE4F04460F4690461D4675
:102AE0000C9E01200190FFF7AFF8814694F851B099
:102AF00060680290AA46BBF1010F0BD00298B0F5B6
:102B0000827F04D1A06810B9BBF1040F02D002206B
:102B1000BDE8FE8F1FB1B8F1000F00D00DB9012044
:102B2000F6E700BF94F85000012801D10220EFE73A
:102B3000012084F8500000BF94F85100042802D00E
:102B4000052084F8510000206065C4F83880E587CE
:102B5000A5872763E586A5862064606420680068F1
:102B600000F04000402805D02068006840F0400098
:102B700021680860E068B0F5006F52D1606810B15C
:102B8000BAF1010F09D1206B00882168C860206B61
:102B9000801C2063E08E401EE0863BE02068806859
:102BA00000F00200022810D1E08E70B101980128D7
:102BB0000BD1206B00882168C860206B801C2063CB
:102BC000E08E401EE086002001902068806800F0C2
:102BD000010068B1E08F58B12068C068A16B08801F
:102BE000A06B801CA063E08F401EE0870120019055
:102BF000FFF72AF8A0EB0900B0420BD3701C48B1D4
:102C0000012084F8510000BF002084F8500000BF6C
:102C100003207DE7E08E0028C0D1E08F0028BDD1E1
:102C200052E0606810B1BAF1010F09D1206B007851
:102C300021680873206B401C2063E08E401EE086F4
:102C40003CE02068806800F00200022810D1E08E8D
:102C500070B1019801280BD1206B007821680873AE
:102C6000206B401C2063E08E401EE0860020019017
:102C70002068806800F0010068B1E08F58B12068DA
:102C8000C068A16B0870A06B401CA063E08F401E61
:102C9000E08701200190FEF7D7FFA0EB0900B042CA
:102CA00001D3701C00B94EB9012084F8510000BF57
:102CB000002084F8500000BF032029E7E08E0028A0
:102CC000BFD1E08F0028BCD14A463146204602F0F1
:102CD000E1FE40B12020606500BF002084F8500074
:102CE00000BF012014E7A06850B900BF0020009089
:102CF0002068C068009020688068009000BF00BF16
:102D0000012084F8510000BF002084F8500000BF6B
:102D1000606D08B10120FBE60020F9E670477047BE
:102D200030B502460B4600BF92F83C00012801D1A5
:102D3000022030BD012082F83C0000BF022082F852
:102D40003D00106844681068816824F070041868B9
:102D5000044310684460184D1068A8421BD01068E6
:102D6000B0F1804F17D0154D1068A84213D0144D04
:102D70001068A8420FD0134D1068A8420BD0124D16
:102D80001068A84207D0114D1068A84203D0104D1A
:102D90001068A84205D121F08001586801431068ED
:102DA0008160012082F83D0000BF002082F83C00D5
:102DB00000BF00BFBDE7000000000140000400406C
:102DC00000080040000C00400004014000400140A9
:102DD0000018004010B504460CB9012010BD94F84D
:102DE0003D0028B9002084F83C00204600F026F879
:102DF000022084F83D00211D206803F043FC0120DF
:102E000084F8460000BF84F83E0001213F200155B0
:102E1000402001554120015500BF00BF012084F82A
:102E2000420043200155442001554520015500BF73
:102E3000012084F83D000020D0E7000038B50446AA
:102E40000E492068884217D100BF002000900C482E
:102E5000006840F010000A4908600846006800F069
:102E60001000009000BF00BF002205213620FFF7B0
:102E700087F93620FFF770F938BD000000100040D8
:102E800040380240014691F83D00012801D0012060
:102E90007047022081F83D000868C06840F00100DA
:102EA0000B68D8601A4B086898421BD00868B0F1CC
:102EB000804F17D0174B0868984213D0164B0868FC
:102EC00098420FD0154B086898420BD0144B0868F5
:102ED000984207D0134B0868984203D0124B0868F9
:102EE00098420CD10868806800F00702062A0CD0CE
:102EF0000868006840F001000B68186005E0086889
:102F0000006840F001000B6818600020C0E7000076
:102F1000000001400004004000080040000C004098
:102F20000004014000400140001800402DE9F0413C
:102F300004460D4614B90120BDE8F08194F83D0027
:102F400028B9002084F83C00204600F053F8022005
:102F500084F83D002068806844F2070188432168B6
:102F60008860211D206803F08DFB2068D0F8088060
:102F7000206886692068076A286840EA080840F2E5
:102F800003308643A969A86840EA0120064340F659
:102F90000C4086434FF2F0008643E969E86840EA56
:102FA0000120064328690001296A40EA01300643EE
:102FB00027F0220727F088076969686840EA01104E
:102FC00007432068C0F8088020688661206807628F
:102FD000012084F8460084F83E0001213F2001557D
:102FE000012084F8420043200155012084F83D006F
:102FF0000020A1E710B586B00446142101A8FDF712
:103000008BF92068B0F1804F2FD100BF00200090D5
:103010003048006840F001002E490860084600680A
:1030200000F00100009000BF00BF00BF0020009032
:1030300028481038006840F001002649103908601F
:103040000846006800F00100009000BF00BF0320A8
:10305000019002200290002003900490012005902E
:1030600001A91D48FEF7E8FC32E01C4920688842AF
:103070002ED100BF002000901648006840F00200EA
:10308000144908600846006800F00200009000BF84
:1030900000BF00BF002000900E481038006840F0CC
:1030A00001000C49103908600846006800F0010072
:1030B000009000BF00BFC0200190022002900020BD
:1030C000039004900220059001A90348FEF7B4FC88
:1030D00006B010BD4038024000000240000400402D
:1030E0002DE9F04304460D4694F83E603F20075D0D
:1030F00094F84280432010F804906DB9012E02D15B
:10310000B8F1010F02D00120BDE8F083022084F85D
:103110003E0084F8420025E0042D0CD1012F02D19D
:10312000B9F1010F01D00120EEE702213F20015546
:103130004320015516E0012E07D1012F05D1B8F12A
:10314000010F02D1B9F1010F01D00120DCE702200B
:1031500084F83E0002213F200155022084F84200FD
:103160004320015515B1042D0CD105E001220021A9
:10317000206803F0F7FA10E001220421206803F030
:10318000F1FA0AE001220021206803F0EBFA0122A3
:103190000421206803F0E6FA00BF00BF2068006841
:1031A00040F00100216808600020ADE7704770B56D
:1031B00004462068C5682068066906F002000228F7
:1031C00019D105F00200022815D1401F21680861BD
:1031D000012020772068806900F0030018B12046A4
:1031E000FFF7E4FF05E0204600F014F9204600F068
:1031F0000FFA0020207706F00400042819D105F00A
:103200000400042815D1C0432168086102202077FA
:103210002068806900F4407018B12046FFF7C6FFAF
:1032200005E0204600F0F6F8204600F0F1F9002015
:10323000207706F00800082819D105F008000828B2
:1032400015D1C04321680861042020772068C06937
:1032500000F0030018B12046FFF7A8FF05E0204664
:1032600000F0D8F8204600F0D3F90020207706F0CF
:103270001000102819D105F01000102815D1C043F6
:1032800021680861082020772068C06900F4407038
:1032900018B12046FFF78AFF05E0204600F0BAF893
:1032A000204600F0B5F90020207706F0010048B173
:1032B00005F0010030B16FF001002168086120467F
:1032C00000F02EFA06F08000802809D105F0800079
:1032D000802805D1C043216808612046FFF71EFD04
:1032E00006F04000402809D105F04000402805D1F3
:1032F000C04321680861204600F01EFA06F0200055
:10330000202809D105F02000202805D1C0432168DC
:1033100008612046FFF703FD70BD000010B586B0C0
:103320000446142101A8FCF7F7FF344920688842BD
:103330001ED100BF002000903148006840F0080016
:103340002F4908600846006800F00800009000BFA0
:1033500000BF4FF4405001900220029000200390E3
:1033600004900220059001A92648FEF765FB42E083
:103370002549206888421DD100BF002000902048C8
:10338000006840F001001E4908600846006800F02F
:103390000100009000BF00BF0420019002200290B5
:1033A0000020039004900220059001A91748FEF721
:1033B00043FB20E01649206888421CD100BF002052
:1033C00000900F48006840F001000D490860084671
:1033D000006800F00100009000BF00BF08200190CD
:1033E000022002900020039004900320059001A980
:1033F0000648FEF721FB06B010BD000000080040A3
:1034000030380240000C0240000C00400000024036
:103410000040014070472DE9F04104460D46164634
:10342000002700BF94F83C00012802D10220BDE82B
:10343000F081012084F83C0000BF36B1042E1BD07F
:10344000082E31D00C2E5ED145E02946206803F0CD
:103450009BF92068806940F0080021688861206835
:10346000806920F0040021688861206880692969EA
:1034700008432168886148E02946206803F0BCF9C8
:103480002068806940F40060216888612068806954
:1034900020F480602168886120688069296940EA99
:1034A00001202168886130E02946206803F0E2F9B4
:1034B0002068C06940F008002168C8612068C069C0
:1034C00020F004002168C8612068C06929690843A8
:1034D0002168C86119E02946206803F007FA2068CE
:1034E000C06940F400602168C8612068C06920F4A8
:1034F00080602168C8612068C069296940EA0120AC
:103500002168C86101E0012700BF00BF00BF0020A3
:1035100084F83C0000BF384689E710B504460CB972
:10352000012010BD94F83D0028B9002084F83C002B
:10353000204600F025F8022084F83D00211D206877
:1035400003F0A0F8012084F8460000BF84F83E0094
:1035500001213F200155402001554120015500BF68
:1035600000BF012084F8420043200155442001554A
:103570004520015500BF012084F83D000020D0E720
:1035800008B51F4A016891420FD100BF0021009188
:103590001C49096841F004011A4A11601146096882
:1035A00001F00401009100BF29E0174A016891422F
:1035B0000FD100BF002100911249096841F00801B4
:1035C000104A11601146096801F00801009100BF1E
:1035D00015E00E4A0168914211D100BF002100910F
:1035E0000849091D096841F48031064A121D11601D
:1035F0001146096801F48031009100BF00BF08BD89
:103600000008004040380240000C004000400140EB
:103610007047000070B504460D4615B994F83E0099
:103620000BE0042D02D13F20005D06E0082D02D101
:103630004020005D01E04120005D012801D0012013
:1036400070BD1DB9022084F83E000EE0042D03D1A8
:1036500002213F20015508E0082D03D1022140201E
:10366000015502E00221412001550122294620682E
:1036700003F078F823492068884203D02249206863
:10368000884201D1012000E0002028B12068406C70
:1036900040F40040216848641A49206888421BD0E1
:1036A0002068B0F1804F17D018492068884213D0A5
:1036B0001749206888420FD01649206888420BD0ED
:1036C00011492068884207D013492068884203D0F6
:1036D0001249206888420CD12068806800F00706F3
:1036E000062E0CD02068006840F0010021680860B8
:1036F00005E02068006840F00100216808600020B3
:103700009EE700000000014000040140000400406A
:1037100000080040000C004000400140001800403C
:1037200010B5044603492068884201D1FEF770FCB9
:1037300010BD0000004401407047F8B504460D4636
:10374000164694F8420020282DD105B10EB901206B
:10375000F8BD0120206300206063324629462046E0
:1037600003F0ACFB0746206B012819D100BF0020F5
:10377000009020680068009020684068009000BFBA
:1037800000BF00BF00BF21680C3151E8001F41F0AD
:10379000100021680C3141E80002002AF3D100E05A
:1037A00001273846D4E70220D2E7000070B505466D
:1037B0000C4604492868884202D1204602F056FA95
:1037C00070BD000000440040034A0168914202D1EC
:1037D0000021024A11707047004400401F01002080
:1037E0002DE9F84F0446206805682068C6682068FF
:1037F00047694FF00009CA4605F00F09B9F1000FFB
:103800000AD105F0200038B106F0200020B1204692
:1038100003F0BFF9BDE8F88FB9F1000F7CD007F0D5
:10382000010018B906F49070002875D005F0010069
:1038300030B106F4807018B1606C40F00100606433
:1038400005F0040030B107F0010018B1606C40F0E1
:103850000200606405F0020030B107F0010018B109
:10386000606C40F00400606405F0080048B106F0A8
:10387000200010B907F0010018B1606C40F008009A
:103880006064606C002846D005F0200028B106F086
:10389000200010B1204603F07CF920684069C0F395
:1038A000801A606C00F0080010B9BAF1000F2DD03A
:1038B000204603F015F92068406900F040004028D8
:1038C00020D100BF00BF2168143151E8001F21F052
:1038D00040002168143141E80002002AF3D100BF02
:1038E000E06B50B17F48E16B0865E06BFDF79BFE34
:1038F00088B1E06B016D88470DE02046FFF764FF5B
:1039000009E009E02046FFF75FFF04E02046FFF7EB
:103910005BFF002060647DE7206B012878D105F013
:103920001000002874D006F010000028FAD000BF64
:103930000020009020680068009020684068009097
:1039400000BF00BF2068406900F04000402870D1EF
:10395000E06B006840681FFA80F8B8F1000F58D09B
:10396000A08D404555DDA4F82E80E06BC069B0F510
:10397000807F43D000BF00BF21680C3151E8001F99
:1039800021F4807021680C3141E80002002AF3D153
:1039900000BF00BF00BF2168143151E8001F21F0B3
:1039A00001002168143141E80002002AF3D100BF70
:1039B00000BF00BF2168143151E8001F21F0400012
:1039C0002168143141E80002002AF3D100BF202011
:1039D00084F842000020206300BF00BF21680C3142
:1039E00051E8001F21F0100021680C3141E800026D
:1039F000002AF3D100BFE06BFDF7BFFD022060633A
:103A0000A08DE28D801A81B22046FFF7CFFE0EE036
:103A100052E0A08D40450AD1E06BC069B0F5807FCF
:103A200005D102206063A18D2046FFF7BFFEF1E6BD
:103A3000FFE7A08DE18D401A1FFA80F8E08DD0B32A
:103A4000B8F1000F37D000BF00BF21680C3151E83A
:103A5000001F21F4907021680C3141E80002002A17
:103A6000F3D100BF00BF00BF2168143151E8001F2F
:103A700021F001002168143141E80002002AF3D14D
:103A800000BF202084F842000020206300BF00BF58
:103A900021680C3151E8001F21F0100021680C3121
:103AA00041E80002002AF3D100BF022060634146D2
:103AB0002046FFF77BFEADE605F0800030B106F052
:103AC000800018B1204603F065FAA3E605F0400037
:103AD00030B106F0400018B1204603F037F899E6FF
:103AE00000BF97E64169000810B504460CB90120F3
:103AF00010BDA06900B100E000BF94F8410028B9F2
:103B0000002084F84000204600F02AF8242084F8A1
:103B100041002068C06820F400502168C860204639
:103B200003F0B6F82068006920F49040216808612D
:103B30002068406920F02A00216848612068C06838
:103B400040F400502168C86000206064202084F8A0
:103B5000410084F842000020606300BFC8E7000015
:103B600010B586B00446142101A8FCF7D5FB3E49E8
:103B70002068884276D100BF002000903B48006852
:103B800040F40030394908600846006800F400300D
:103B9000009000BF00BF00BF0020009033481038E5
:103BA000006840F008003149103908600846006894
:103BB00000F00800009000BF00BF602001900220CC
:103BC000029000200390032004900720059001A993
:103BD0002748FDF731FF2748274908604FF000606C
:103BE00048604021244881600021C1604FF4806119
:103BF0000161002141618161C16101624162FDF7A2
:103C000047FE08B1FDF7B6FC00BF1B48A063846304
:103C100000BF18481838194908604FF00060486024
:103C2000002116488160C1604FF48061016100216C
:103C3000416181614FF48071C16100210162416283
:103C4000FDF726FE08B1FDF795FC00BF0B48E063C9
:103C5000846300BF002205212620FEF791FA26206A
:103C6000FEF77AFA06B010BD00440040403802402A
:103C7000000C0240A0600240C8030020280400207D
:103C8000704770472DE9F84F04460E46174699468F
:103C90004FF0000A94F84100202850D106B117B91E
:103CA0000120BDE8F88F00206064212084F84100E5
:103CB000FDF7CAFF8246A784E784A068B0F5805F5D
:103CC00004D1206910B90025B04602E035464FF016
:103CD00000081EE05346002280212046CDF80090C7
:103CE00003F088F920B1202084F841000320D8E7B0
:103CF00045B9B8F80000C0F308002168486008F131
:103D0000020803E02878216848606D1CE08C401EA2
:103D1000E084E08C0028DDD153460022402120467B
:103D2000CDF8009003F066F920B1202084F841001E
:103D30000320B6E7202084F841000020B1E70220EC
:103D4000AFE70000F7B50446154694F84100202877
:103D50003ED1019800B10DB90120FEBD019820624D
:103D6000A584E58400206064212084F8410019487E
:103D7000A16BC8631848A16B08641848A16BC8649C
:103D80000020A16B086501AE23681A1D31682B461F
:103D9000A06BFDF7F3FD30B110206064202084F8A3
:103DA00041000120D9E76FF040002168086000BFA2
:103DB00000BF2168143151E8001F41F080002168E4
:103DC000143141E80002002AF3D100BF0020C4E70B
:103DD0000220C2E77B6A0008D36A00085369000822
:103DE000034A0168914202D10021024A11707047D2
:103DF000004400401F010020704700BFFEE701465D
:103E000008684069C0F38020B0B16FF480600A6830
:103E1000506100200863202081F83D00002081F8D7
:103E20003E00086C40F00400086400BF002081F8E8
:103E30003C0000BF012070470020FCE72DE9F8435B
:103E40000446884615469946DDE9086720680068FB
:103E500040F4807021680860334600224FF0011161
:103E60002046009700F08DF860B12068006800F4EB
:103E70008070B0F5807F02D14FF400702064032081
:103E8000BDE8F88308F0FE00216808613B46324631
:103E90002149204600F0D4F808B10120F0E700BF26
:103EA00000200090206840690090206880690090A0
:103EB00000BF00BF3A463146204600F03EF950B1FF
:103EC000206C042805D12068006840F40070216847
:103ED00008600120D4E7B9F1010F03D1E8B22168ED
:103EE000086117E0C5F30720216808613A463146AA
:103EF000204600F022F950B1206C042805D120683A
:103F0000006840F40070216808600120B8E7E8B25A
:103F1000216808610020B3E70200010070B5044683
:103F20000D46164625E02046FFF769FF08B101203F
:103F300070BD681CE8B1FDF787FE801BA84200D861
:103F4000BDB920684069C0F3800090B900202063AB
:103F5000202084F83D00002084F83E00206C40F0D2
:103F60002000206400BF002084F83C0000BF012036
:103F7000DEE720684069C0F380000028D3D000202D
:103F8000D6E72DE9F04104460D4617461E46DDF8FA
:103F9000188038E0701CA8B3FDF756FEA0EB0800AF
:103FA000B04200D876BBC5F3074001280AD120688B
:103FB0004069A9B20840A9B2884201D101200BE0B2
:103FC000002009E020688069A9B20840A9B28842AF
:103FD00001D1012000E00020B84214D1002020636C
:103FE000202084F83D00002084F83E00206C40F042
:103FF0002000206400BF002084F83C0000BF0120A6
:10400000BDE8F081FFE7C5F3074001280AD1206829
:104010004069A9B20840A9B2884201D101200BE051
:10402000002009E020688069A9B20840A9B288424E
:1040300001D1012000E00020B842ABD00020DFE732
:104040002DE9F04104460D4616461F4658E020680B
:104050004069C0F38020E8B12068006840F4007037
:10406000216808606FF48060216848610020206347
:10407000202084F83D00002084F83E00206C40F0B1
:104080000400206400BF002084F83C0000BF012031
:10409000BDE8F081701C90B3FDF7D6FDC01BB042A7
:1040A00000D866BBC5F3074001280AD120684069E3
:1040B000A9B20840A9B2884201D101200BE000203A
:1040C00009E020688069A9B20840A9B2884201D1FC
:1040D000012000E0002090B900202063202084F817
:1040E0003D00002084F83E00206C40F02000206459
:1040F00000BF002084F83C0000BF0120C8E7FFE7B4
:10410000C5F3074001280AD120684069A9B20840D8
:10411000A9B2884201D101200BE0002009E020680B
:104120008069A9B20840A9B2884201D1012000E00B
:10413000002000288BD00020AAE770B504460D4669
:10414000164625E02046FFF75AFE08B1012070BD53
:10415000681CE8B1FDF778FD801BA84200D8BDB906
:1041600020684069C0F3C01090B90020206320206F
:1041700084F83D00002084F83E00206C40F02000D0
:10418000206400BF002084F83C0000BF0120DEE76F
:1041900020684069C0F3C0100028D3D00020D6E7C3
:1041A00010B510210E48FDF741FD08B9012010BDE2
:1041B00020210B48FDF73AFD08B90220F7E704215A
:1041C0000748FDF733FD08B90320F0E7082104484C
:1041D000FDF72CFD08B90420E9E70020E7E700001F
:1041E0000010024070B504460D4614B10B4800683B
:1041F00008B9002070BD4FF47A7068434FF47A71AB
:10420000B0FBF1F6324621460448006804F04AFD4E
:10421000012800D1EEE70020ECE70000C0000020FC
:104220001CB50D48006830B900220121082004F0B7
:10423000FEFA094908600848006860B1074800684C
:1042400048B9064802210023CA01CDE9001004A1A3
:10425000054804F0FDFE1CBDC0000020BC0000208D
:104260004B65795461736B006D4200081CB504F016
:104270008FFF019000BF0024002517E0142101A842
:1042800004F02AF82546FFF78BFF0446084804701F
:104290005CB955B100950748006830B100231A4653
:1042A00069460448006804F0ABFB00BFE6E7000085
:1042B000C4000020C000002010B5FFF7B1FF10BD02
:1042C00008B500BF002000900E48006840F40010C0
:1042D0000C4908600846006800F40010009000BF18
:1042E00000BF002205211020FDF74AFF1020FDF736
:1042F00033FF002205211120FDF742FF1120FDF7B9
:104300002BFF08BD3038024010B500F003FF062334
:104310000DA20121084601F07FF901F0DBFA0E4AF7
:1043200000210E4802F0CEFF0D49086000F056FC57
:1043300001F0A4FAFFF7C0FF02F0F2F800F06CFE03
:1043400001F06CFD10BD00004F53204C6F6164699B
:104350006E672E2E2E000000C0960008555E0008E5
:104360000000002000B587B0142102A8FBF7D4FF9D
:1043700000BF002001905448006840F010005249EE
:1043800008600846006800F01000019000BF00BF00
:1043900000BF002001900846006840F0040008605B
:1043A0000846006800F00400019000BF00BF00BF95
:1043B000002001900846006840F080000860084630
:1043C000006800F08000019000BF00BF00BF002027
:1043D00001900846006840F0010008600846006847
:1043E00000F00100019000BF00BF00BF002001905D
:1043F0000846006840F0020008600846006800F0C7
:104400000200019000BF00BF00BF002001900846DD
:10441000006840F0080008600846006800F00800E6
:10442000019000BF00BF00221F212848FDF706FCB5
:1044300000224FF4F0612648FDF700FC0122110331
:104440002448FDF7FBFB00224FF480412248FDF792
:10445000F5FB3C200290002003900120049002A96B
:104460001B48FDF7E9FA1F2002900120039000206D
:104470000490059002A91548FDF7DEFA4FF4F060AC
:1044800002900120039000200490059002A910489A
:10449000FDF7D2FA4FF480500290012003900020E3
:1044A0000490059002A90B48FDF7C6FA4FF480402E
:1044B00002900120039000200490059002A9064874
:1044C000FDF7BAFA07B000BD3038024000080240DC
:1044D0000010024000040240000C024010B50B48DE
:1044E0000B4908600B484860002109488160C160A1
:1044F0004FF480410161002141618161C16101622C
:10450000FDF7A8FB08B1FDF735F810BD00540040D9
:1045100024010020801A060010B50E480E490860DC
:104520004FF48270486000210B488160C1600161D6
:1045300041614FF4007181611021C161002101626C
:10454000416281620A21C162FEF71CFA08B1FDF7DF
:1045500011F810BD003800407801002000B58BB084
:10456000242102A8FBF7D8FE0020009001904FF014
:104570008040194908600020486000211648816089
:104580004FF6FF71C160002101618161032002903B
:104590000020039001200490002005900620069042
:1045A00000200790012008900020099006200A9022
:1045B00002A90948FEF7BAFC08B1FCF7DBFF0020AE
:1045C0000090019069460448FEF7AAFB08B1FCF789
:1045D000D1FF0BB000BD0000D001002000B58BB0B2
:1045E000242102A8FBF798FE0020009001901948B2
:1045F00019490860002048600021174881604FF683
:10460000FF71C160002101618161032002900020DF
:1046100003900120049000200590062006900020C1
:104620000790012008900020099006200A9002A916
:104630000948FEF77BFC08B1FCF79CFF00200090C6
:10464000019069460448FEF76BFB08B1FCF792FF46
:104650000BB000BD000400401802002000B589B076
:104660000020079008901C216846FBF755FE1C4867
:104670001C4908605320486000211A48816040F2BC
:10468000E731C160002101618161FEF746FF08B199
:10469000FCF770FF00200790089007A91148FEF76B
:1046A0003FFB08B1FCF766FF6020009000200190FE
:1046B00002900490002269460A48FEF7ACFE08B159
:1046C000FCF758FF042269460648FEF7A4FE08B12D
:1046D000FCF750FF0348FEF721FE09B000BD0000C3
:1046E000000800406002002000B589B0002007905B
:1046F00008901C216846FBF70FFE1948194908600D
:104700005320486000211748816040F2E731C160C2
:104710000021016180218161FEF7FFFE08B1FCF7F5
:1047200029FF00200790089007A90E48FEF7F8FA25
:1047300008B1FCF71FFF602000904FF4FA70019061
:10474000002002900490082269460648FEF763FEA6
:1047500008B1FCF70FFF0348FEF7E0FD09B000BD0C
:10476000000C0040A80200201CB500200090019021
:104770000E480F490860A720486000210C4881605E
:1047800040F2E731C16080218161FEF723FB08B16F
:10479000FCF7F0FE00200090019069460448FEF707
:1047A000BFFA08B1FCF7E6FE1CBD00000010004097
:1047B000F002002000B587B01C216846FBF7ACFD75
:1047C0001448154908605320486000211248816050
:1047D00040F2E731C1600021016180218161FEF773
:1047E0009CFE08B1FCF7C6FE602000904FF4FA7002
:1047F0000190002002900490042269460648FEF7CA
:104800000AFE08B1FCF7B6FE0348FEF787FD07B0C5
:1048100000BD0000004001403803002010B50B48E7
:104820000B4908604FF41640486000210848816039
:10483000C16001610C21416100218161C161FFF70B
:1048400053F908B1FCF796FE10BD0000004400408B
:104850008003002000BFFEE700B589B01A48006859
:1048600008B909B000BD194800788DF80400174850
:1048700040788DF8050015484088ADF806001348CB
:104880008088ADF80800114890ED020A8DED030A0A
:1048900090ED030A8DED040A006905900B4840690C
:1048A00006900B48B0F90000ADF81C00094890EDE7
:1048B000000A8DED080A0223002201A902480068BF
:1048C00004F09EF800BFCCE798000020A44D002023
:1048D0009C000020A00000202DED048B82B004F08D
:1048E00057FC019000BF00260027FCF75FFC002169
:1048F0000846FCF789FC9FED9E3ADFED9E2A9FED6E
:104900009E2ADFED9E1A9FED9E1ADFED9E0A9FED17
:104910009E0A9E4801F08CF828E1322101A803F09C
:10492000DBFC9B480078012827D19A4800780128B1
:1049300023D13237B7F5FA6F03D30027701C00F08C
:10494000030626B1012E07D0022E10D10AE0232142
:104950000846FCF759FC0FE06FF022010846FCF70F
:1049600053FC09E02D211920FCF74EFC04E0002146
:104970000846FCF749FC00BFEDE0854800780128B7
:104980007ED1844800780428FAD104F001FC8046E6
:104990009FED7B0AF0EE408A7F480068A8EB00009C
:1049A000C82805D982207D4908707B207C49087081
:1049B0007A480078A0F18204082C0EDD00EE104A3F
:1049C000B8EEC00ADFED770A80EE201AB0EE000ADA
:1049D00021EE000AF0EE408A10E014F1080F0DDA23
:1049E00000EE104AF8EEC00A9FED6F1A80EE810AC1
:1049F000F0EE000A20EE200AF0EE408A9FED6B1ADE
:104A0000F0EE410A6A4890ED001A38EEC11AB0EE95
:104A1000410A9FED661AB4EEC10AF1EE10FA03DD09
:104A20009FED621AB0EE410A9FED621AB4EEC10A20
:104A3000F1EE10FA03D29FED5F1AB0EE410A5C4826
:104A400090ED001A31EE001A80ED001AB0EEE81A6F
:104A5000DFED591AB4EEE11AF1EE10FA0ED290ED34
:104A6000001AB0EEC11ADFED551AB4EEE11AF1EEFC
:104A700010FA03D29FED421A80ED001A4C4800E074
:104A800058E090ED000A4E4880ED000A4D4890ED48
:104A9000020AD0ED030A30EE200AF6EE000A20EEFC
:104AA000209A494890ED000ADFED480A20EE200ADE
:104AB000DFED470A09EE200A80ED000A404890ED3C
:104AC000000A4148D0ED000A70EE609A3C4890ED33
:104AD000000AB0EEC00ADFED380AB4EEE00AF1EEEB
:104AE00010FA04D2294800F0C3FF002511E09FED21
:104AF000391A3548D0ED000A314890ED000A2348B4
:104B000000F01EFFB0EE408ABDEEC80A10EE100A9B
:104B100005B2642D00DD642515F1640F01DA6FF034
:104B200063052D48058029462846FCF76DFB0026C5
:104B3000002710E000210846FCF766FB002026490C
:104B400008809FED0F0A1E4880ED000A0F4800F014
:104B50008FFF002600279FED1F0AFCF721FC194854
:104B6000FCF716FBFFF778FE00F02CFBD5E6000003
:104B70006666E63F6666E6BF0000C8420000C8C23F
:104B8000000000000000824200008C42BC4D00206A
:104B9000BA000020B8000020FC0000200001002026
:104BA000010100200000FA4200000243CDCCCC3DC0
:104BB000A4000020CDCCCCBD8FC2F53C8FC2753D8A
:104BC000A0000020A44D0020A80000203333333F74
:104BD0009A99993ECDCC4C3D9C0000201CB50B48C9
:104BE000006830B900222021012003F020FE07498F
:104BF00008600748032100234FF48072CDE90010BC
:104C000004A1074804F024FA1CBD0000980000200D
:104C1000940000204D6F746F725461736B0000003C
:104C2000D948000800BFFEE710B5002000F0EAF800
:104C3000E22000F0C7F8012000F0E4F810BD10B544
:104C4000002000F0DFF8E12000F0BCF8012000F0C7
:104C5000D9F810BD10B5002000F0C8F8012000F010
:104C6000D1F86420FCF7D4FE0821002000F0D6F82B
:104C70003F21012000F0D2F80121022000F0CEF8FF
:104C80000321084600F0CAF80321042000F0C6F80A
:104C90000221052000F0C2F80E21062000F0BEF827
:104CA0000421112000F0BAF8052207490A2000F07B
:104CB000C6F8FFF7C4FFFFF7B7FF7021072000F029
:104CC000ADF800F065F810BD1501002070B5044680
:104CD000002000F097F8204600F074F8FF2000F064
:104CE00071F80546012000F08DF8284670BD70B5BA
:104CF00005460E46002000F085F8612000F062F8BD
:104D0000002405E0FF2000F05DF82855601CC4B2C7
:104D1000B442F7DB012000F075F870BD10B500203B
:104D200000F070F8FF2000F04DF80446012000F07C
:104D300069F8204610BD000070B5FFF7EFFF05468B
:104D40000020FFF7C3FF064606F0020018B903244F
:104D5000FFF780FF18E005F03000302803D102246F
:104D6000FFF778FF10E005F0400040280BD1012448
:104D700004210648FFF7BBFF4021072000F04EF852
:104D8000FFF752FF00E00024204670BD1A0100200A
:104D900010B5002000F02AF80020FFF797FF044626
:104DA000FF2C00D110BD44F003042146002000F088
:104DB00035F80220FCF72CFE012000F017F800BFA8
:104DC000F0E7000001B582B0FF20019064200123CC
:104DD00001AA02A900900448FDF77CFE08B1FF205B
:104DE0000EBD9DF80400FBE77801002010B50446D5
:104DF00022464FF480410248FCF720FF10BD00001E
:104E0000000C024010B5044622464FF4805102487F
:104E1000FCF714FF10BD00000004024070B504460A
:104E20000D460020FFF7EEFF44F02000FFF7CAFF19
:104E30002846FFF7C7FF0120FFF7E4FF70BD2DE90B
:104E4000F04105460E4617460020FFF7DBFF45F010
:104E50002000FFF7B7FF002404E0305DFFF7B2FF4A
:104E6000601CC4B2BC42F8DB0120FFF7CBFFBDE8F9
:104E7000F081000000B587B01848006808B907B095
:104E800000BD174800788DF80400164800680290AD
:104E9000154800680390154800788DF810001348F5
:104EA00041788DF8111081788DF81210C1788DF845
:104EB00013100F48006805900E4800788DF8180010
:104EC0000D4800788DF819000223002201A903483B
:104ED000006803F095FD00BFD1E70000E800002066
:104EE000EC000020F0000020F4000020F80000207A
:104EF000FC000020000100200101002008B504F0A2
:104F000047F9009000BFFFF7A5FE70E00A21684650
:104F100003F0E2F936480078012803D135480078DB
:104F2000032808D032480078012803D1314800789E
:104F3000042800D05BE0FFF7FFFE04462E48047013
:104F4000012C48D12D480068401C2C4908602C4891
:104F500000782C4908702A484078487028488078A2
:104F600088702748C078C87004F012F92649086094
:104F70002648007800EB400021490978451824486C
:104F8000007800EB40001E4949784618C5F38700B9
:104F90001E490870C6F387001D4908701B48007839
:104FA0008238032808DA19480078823810F1030F94
:104FB00002DD822015490870154800787B380328E7
:104FC00008DA134800787B3810F1030F02DD7B20EC
:104FD0000F49087006E0022C04D30E480068401CFC
:104FE0000C490860FFF746FF00F0ECF800BF8DE7C2
:104FF000BA000020B8000020EC000020F0000020E3
:105000001A010020F8000020FC0000200001002010
:1050100001010020F40000201CB50B48006830B9E5
:1050200000221821012003F002FC0749086007480C
:10503000032100234FF48072CDE9001004A106483B
:1050400004F006F81CBD0000E8000020E400002089
:105050004E72665461736B00FD4E000800200CE038
:10506000002106E00022064B03EBC0135A544A1CF1
:10507000D1B28029F6DB421CD0B20828F0DB7047A1
:10508000404E00202DE9F04304460D4616461F46CB
:10509000284638E0224631E0002A2DDB7F2A2BDC2F
:1050A000002829DB3F2827DC4FEAE07C00EB5C7C12
:1050B0004FEAEC0CDFF8588008EBCC1C1CF802C05F
:1050C00003464FEAE07800EB58784FEAE808A0EB97
:1050D000C8094FF0010808FA09F82CEA080C014643
:1050E0004FEAE07800EB58784FEAE808DFF82090C4
:1050F00009EBC81808F802C0511C0AB2A119914264
:10510000CADC411C08B2E9198142C3DCBDE8F08366
:10511000404E002010B53220FCF77AFCAE2000F0A3
:10512000EDFBD52000F0EAFB802000F0E7FBA82093
:1051300000F0E4FB3F2000F0E1FBD32000F0DEFBB9
:10514000002000F0DBFB402000F0D8FBA12000F0A5
:10515000D5FBC82000F0D2FBDA2000F0CFFB1220F4
:1051600000F0CCFB812000F0C9FBCF2000F0C6FB93
:10517000D92000F0C3FBF12000F0C0FBDB2000F0E1
:10518000BDFB302000F0BAFBA42000F0B7FBA62046
:1051900000F0B4FB8D2000F0B1FB142000F0AEFB5A
:1051A000AF2000F0ABFBFFF759FF00F093FB10BD01
:1051B00010B50246012000E050430B1EA1F1010191
:1051C000FAD110BD00B5A3B00A48006808B923B0F1
:1051D00000BD01A8FBF726FB442201A912A8FBF79A
:1051E00082F80223002212A90248006803F008FC9A
:1051F00000BFECE7B00000202DE9F04304460D4667
:1052000016461F46284638E0224631E0002A2DDBAC
:105210007F2A2BDC002829DB3F2827DC4FEAE07CB3
:1052200000EB5C7C4FEAEC0CDFF8588008EBCC1C00
:105230001CF802C003464FEAE07800EB58784FEACA
:10524000E808A0EBC8094FF0010808FA09F88CEA51
:10525000080C01464FEAE07800EB58784FEAE8087E
:10526000DFF8209009EBC81808F802C0511C0AB2F8
:10527000A1199142CADC411C08B2E9198142C3DC80
:10528000BDE8F083404E002070B505460C4645F061
:10529000B00000F033FB102141EA141000F02EFBA7
:1052A00004F00F0000F02AFB70BD0000F8B50646C0
:1052B0000F4614461D46082D0CD1A4F120000E49BE
:1052C00001EB00101023082239460090304600F010
:1052D000C7F80FE0062D0DD1A4F1200000EB40002F
:1052E000064901EB4000082306223946009030466B
:1052F00000F0B6F8F8BD000004970008F49C000820
:105300002DE9F04F2DED088B81B005468B46B0EEB0
:10531000408AF0EE608A16469A46129C9FED360B44
:1053200053EC102B51EC180BFBF780F906D82346F1
:105330002B2259462846FFF7B9FF0BE023462D22C2
:1053400059462846FFF7B2FF51EC180B81F0004197
:1053500041EC180B51EC180BFBF724F98046404642
:10536000FBF713F941EC190B53EC182BFBF798F8EA
:1053700041EC180B51460A20FFF71AFF0746384642
:10538000FBF703F941EC1B0B53EC182BFBF78BF8E5
:1053900041EC1A0BB0EE4A0AF0EE6A0A01F09CFEEC
:1053A000B0EE409AF0EE609A51EC190BFBF7FAF868
:1053B0008146B9FBF7F08044291908B233464246CA
:1053C0005946009400F0CAF8711C01FB045108B260
:1053D00023462E225946FFF769FFB11C01FB0451F9
:1053E00008B253464A465946009400F0B7F801B057
:1053F000BDEC088BBDE8F08F00000000000000004D
:105400002DE9F04706468A4691461F46DDF8208082
:10541000002421E0381B411E1020FFF7C9FEB9FB14
:10542000F0F000F00F050A2D0ADA05F13001CAB2DA
:1054300004FB086108B243465146FFF737FF09E015
:1054400005F13701CAB204FB086108B24346514670
:10545000FFF72CFF601CC4B2BC42DBDBBDE8F08769
:105460002DE9FF4F80460E469146DDF834B0002509
:1054700000244A4631464046039BFFF703FE00BF27
:105480005EE0002558E008EB0500002852DB08EB41
:1054900005007F284EDC3046F11706EB5171C9102C
:1054A0000FB2F11706EB5171C910A6EBC10A002E1D
:1054B00005DA781E07B20AF108000FFA80FA3819E7
:1054C000002817DB3819072814DC3819224901EBAA
:1054D000C01008EB0501405C04FB09511BF80110EA
:1054E00001FA0AF1084339191B4A02EBC11108EB12
:1054F000050288543819401C00281BDB3819401C51
:10550000072817DC3819401C134901EBC01008EBC1
:105510000501405C04FB09511BF80110CAF10802A7
:10552000114108433919491C0B4A02EBC11108EB20
:1055300005028854681CC5B24D45A4DB601CC4B28A
:105540000399481EC11700EB5171012202EBE101E2
:10555000A14296DCBDE8FF8F404E00202DE9F047C8
:105560000646894617461D46DDF82080002417E0D0
:10557000281B411E0A20FFF71BFEB7FBF0F00A2193
:10558000B0FBF1F201FB120000F1300A04FB0861EC
:1055900008B2434652464946FFF788FE601CC4B233
:1055A000AC42E5DBBDE8F0872DE9F04F80468A4646
:1055B00015461E46DDF82490002D07DB4B462B22B6
:1055C00051464046FFF772FE2F4606E04B462D221D
:1055D00051464046FFF76AFE6F42002418E0301B38
:1055E000411E0A20FFF7E4FDB7FBF0F00A21B0FBF3
:1055F000F1F201FB120000F1300B611C01FB09818B
:1056000008B24B465A465146FFF750FE601CC4B2E2
:10561000B442E4DBBDE8F08F2DE9FE4F07468A4631
:10562000144698460025AB460026CBE0605D00F0AE
:10563000800058B94FF0010B2846691C8DB2205CE0
:105640008DF8040000208DF805006BE0605D00F02F
:10565000E000C02814D14FF0020B2846691C8DB21F
:10566000205C8DF80400605D00B9AFE02846691C3D
:105670008DB2205C8DF8050000208DF8060051E009
:10568000605D00F0F000E0281DD14FF0030B2846CC
:10569000691C8DB2205C8DF80400605D00B995E056
:1056A0002846691C8DB2205C8DF80500605D00B94C
:1056B0008CE02846691C8DB2205C8DF80600002025
:1056C0008DF807002EE0605D00F0F800F02826D18C
:1056D0004FF0040B2846691C8DB2205C8DF8040045
:1056E000605D00B972E02846691C8DB2205C8DF8BF
:1056F0000500605D00B969E02846691C8DB2205C38
:105700008DF80600605D00B960E02846691C8DB226
:10571000205C8DF8070000208DF8080002E0681C6E
:1057200085B24FE0BBF1010F0BD19DF80420B919F0
:1057300008B243465146FFF7B9FD06EB080086B2B2
:105740003FE04FF000090EE009EB890101EB491140
:10575000204A881801A9FAF7F1FD00B90EE009F115
:1057600001001FFA80F909EB890101EB4911194A7F
:10577000881819A1FAF7E2FD0028E5D100BFB8F1B9
:10578000080F12D109EB890000EB491011490844B8
:10579000401DB919009008B210231A465146FFF770
:1057A0005FFE06F1100086B20BE0B8F1060F08D1DB
:1057B000B91908B206233F225146FFF777FDB01D05
:1057C00086B200BF605D00287FF430AF00BFBDE847
:1057D000FE8F00002E9F00080000000008B503F0B7
:1057E000D7FC009000BFFBF793FC41E032216846F4
:1057F00002F072FDFBF736FC044605E02046FBF79D
:105800003BFCFBF72FFC0446002CF7D1194800683D
:1058100038B1002218491748006803F043FA0128FC
:1058200001D0FBF775FCFFF719FC1348407810B95D
:10583000FBF774F919E010480078052810D2DFE86A
:1058400000F0100306090C00FBF7E0F90CE0FBF791
:1058500039FB09E0FBF784FA06E0FBF78BF803E07D
:1058600000BFFBF75BF900BF00BF00F033F800BFDB
:10587000BCE70000B0000020E44D00201CB50E483D
:10588000006820B9012002F0C1FF0B4908600B48F5
:10589000006830B900224421012002F0C8FF074906
:1058A00008600748012100234A02CDE9001005A144
:1058B000074803F0CDFB1CBDB4000020B000002061
:1058C000AC0000204F4C45445461736B0000000055
:1058D000DD57000810B500240BE000212046FFF73B
:1058E000D3FC054901EBC410802100F019F8601CBD
:1058F000C4B2082CF1DB10BD404E002001B584B0CD
:105900006420012104AA0B46CDE900210290002267
:1059100078210248FCF786FA05B000BD240100207A
:105920003EB504460D466420012340227821CDE98E
:10593000004502900148FCF775FA3EBD24010020A5
:1059400010B52DED088B0446B0EE409AF0EE609A4B
:10595000F0EE418A24B99FED2A0ABDEC088B10BDF8
:10596000F5EEC08AF1EE10FA02D894ED050AF4E7DC
:1059700039EE698A94ED000A20EE08AA94ED030A34
:1059800008EE280A84ED030AD4ED091AB0EE611A74
:10599000D4ED081AF0EE610AD4ED031AB0EE610AF4
:1059A00000F030F884ED030A94ED010AD4ED030A07
:1059B00060EE20AA94ED040A38EE400AC0EE28BA40
:1059C00094ED020A20EE2BBA3AEE2A0A30EE0B0AC8
:1059D00084ED050AD4ED071AB0EE611AD4ED061A6B
:1059E000F0EE610AD4ED051AB0EE610A00F00AF893
:1059F00084ED050A84ED048A94ED050AADE7000004
:105A000000000000F0EE401AF4EEE01AF1EE10FA99
:105A100002D2B0EE600A7047F4EEC11AF1EE10FA4D
:105A200002DDB0EE410AF6E7B0EE610AF3E70000EE
:105A300000B9704780ED000AC0ED010A80ED021A3E
:105A4000DFED0A3AC0ED033ADFED083AC0ED043A63
:105A5000DFED063AC0ED053AC0ED061A80ED072AE3
:105A6000C0ED082A80ED093A00BFE2E7000000001F
:105A700000B970479FED060A80ED030A9FED040A06
:105A800080ED040A9FED020A80ED050A00BFF0E7F1
:105A9000000000007CB504460E4615463346012240
:105AA00002212046009500F039F828B1606D40F0E1
:105AB0002000606503207CBD164800681821B0FBFB
:105AC000F1F01549B0FBF1F04FF47A7148430190C1
:105AD0006068B0F5827F0DD13346002280212046D8
